{
  "_format": "hh-sol-artifact-1",
  "contractName": "CertificateRegistry",
  "sourceName": "contracts/CertificateRegistry.sol",
  "abi": [
    {
      "inputs": [],
      "stateMutability": "nonpayable",
      "type": "constructor"
    },
    {
      "inputs": [],
      "name": "AccessControlBadConfirmation",
      "type": "error"
    },
    {
      "inputs": [
        {
          "internalType": "address",
          "name": "account",
          "type": "address"
        },
        {
          "internalType": "bytes32",
          "name": "neededRole",
          "type": "bytes32"
        }
      ],
      "name": "AccessControlUnauthorizedAccount",
      "type": "error"
    },
    {
      "anonymous": false,
      "inputs": [
        {
          "indexed": true,
          "internalType": "bytes32",
          "name": "id",
          "type": "bytes32"
        },
        {
          "indexed": true,
          "internalType": "bytes32",
          "name": "holderHash",
          "type": "bytes32"
        },
        {
          "indexed": false,
          "internalType": "string",
          "name": "title",
          "type": "string"
        },
        {
          "indexed": false,
          "internalType": "uint64",
          "name": "issuedAt",
          "type": "uint64"
        }
      ],
      "name": "CertificateIssued",
      "type": "event"
    },
    {
      "anonymous": false,
      "inputs": [
        {
          "indexed": true,
          "internalType": "bytes32",
          "name": "id",
          "type": "bytes32"
        },
        {
          "indexed": false,
          "internalType": "uint64",
          "name": "revokedAt",
          "type": "uint64"
        }
      ],
      "name": "CertificateRevoked",
      "type": "event"
    },
    {
      "anonymous": false,
      "inputs": [
        {
          "indexed": true,
          "internalType": "bytes32",
          "name": "role",
          "type": "bytes32"
        },
        {
          "indexed": true,
          "internalType": "bytes32",
          "name": "previousAdminRole",
          "type": "bytes32"
        },
        {
          "indexed": true,
          "internalType": "bytes32",
          "name": "newAdminRole",
          "type": "bytes32"
        }
      ],
      "name": "RoleAdminChanged",
      "type": "event"
    },
    {
      "anonymous": false,
      "inputs": [
        {
          "indexed": true,
          "internalType": "bytes32",
          "name": "role",
          "type": "bytes32"
        },
        {
          "indexed": true,
          "internalType": "address",
          "name": "account",
          "type": "address"
        },
        {
          "indexed": true,
          "internalType": "address",
          "name": "sender",
          "type": "address"
        }
      ],
      "name": "RoleGranted",
      "type": "event"
    },
    {
      "anonymous": false,
      "inputs": [
        {
          "indexed": true,
          "internalType": "bytes32",
          "name": "role",
          "type": "bytes32"
        },
        {
          "indexed": true,
          "internalType": "address",
          "name": "account",
          "type": "address"
        },
        {
          "indexed": true,
          "internalType": "address",
          "name": "sender",
          "type": "address"
        }
      ],
      "name": "RoleRevoked",
      "type": "event"
    },
    {
      "inputs": [],
      "name": "DEFAULT_ADMIN_ROLE",
      "outputs": [
        {
          "internalType": "bytes32",
          "name": "",
          "type": "bytes32"
        }
      ],
      "stateMutability": "view",
      "type": "function"
    },
    {
      "inputs": [],
      "name": "ISSUER_ROLE",
      "outputs": [
        {
          "internalType": "bytes32",
          "name": "",
          "type": "bytes32"
        }
      ],
      "stateMutability": "view",
      "type": "function"
    },
    {
      "inputs": [
        {
          "internalType": "bytes32",
          "name": "",
          "type": "bytes32"
        }
      ],
      "name": "certificates",
      "outputs": [
        {
          "internalType": "bytes32",
          "name": "id",
          "type": "bytes32"
        },
        {
          "internalType": "bytes32",
          "name": "holderHash",
          "type": "bytes32"
        },
        {
          "internalType": "string",
          "name": "title",
          "type": "string"
        },
        {
          "internalType": "string",
          "name": "issuer",
          "type": "string"
        },
        {
          "internalType": "uint64",
          "name": "issuedAt",
          "type": "uint64"
        },
        {
          "internalType": "uint64",
          "name": "expiresAt",
          "type": "uint64"
        },
        {
          "internalType": "bool",
          "name": "revoked",
          "type": "bool"
        }
      ],
      "stateMutability": "view",
      "type": "function"
    },
    {
      "inputs": [
        {
          "internalType": "bytes32",
          "name": "role",
          "type": "bytes32"
        }
      ],
      "name": "getRoleAdmin",
      "outputs": [
        {
          "internalType": "bytes32",
          "name": "",
          "type": "bytes32"
        }
      ],
      "stateMutability": "view",
      "type": "function"
    },
    {
      "inputs": [
        {
          "internalType": "bytes32",
          "name": "role",
          "type": "bytes32"
        },
        {
          "internalType": "address",
          "name": "account",
          "type": "address"
        }
      ],
      "name": "grantRole",
      "outputs": [],
      "stateMutability": "nonpayable",
      "type": "function"
    },
    {
      "inputs": [
        {
          "internalType": "bytes32",
          "name": "role",
          "type": "bytes32"
        },
        {
          "internalType": "address",
          "name": "account",
          "type": "address"
        }
      ],
      "name": "hasRole",
      "outputs": [
        {
          "internalType": "bool",
          "name": "",
          "type": "bool"
        }
      ],
      "stateMutability": "view",
      "type": "function"
    },
    {
      "inputs": [
        {
          "internalType": "bytes32",
          "name": "_id",
          "type": "bytes32"
        },
        {
          "internalType": "bytes32",
          "name": "_holderHash",
          "type": "bytes32"
        },
        {
          "internalType": "string",
          "name": "_title",
          "type": "string"
        },
        {
          "internalType": "string",
          "name": "_issuer",
          "type": "string"
        },
        {
          "internalType": "uint64",
          "name": "_expiresAt",
          "type": "uint64"
        }
      ],
      "name": "issue",
      "outputs": [],
      "stateMutability": "nonpayable",
      "type": "function"
    },
    {
      "inputs": [
        {
          "internalType": "bytes32",
          "name": "role",
          "type": "bytes32"
        },
        {
          "internalType": "address",
          "name": "callerConfirmation",
          "type": "address"
        }
      ],
      "name": "renounceRole",
      "outputs": [],
      "stateMutability": "nonpayable",
      "type": "function"
    },
    {
      "inputs": [
        {
          "internalType": "bytes32",
          "name": "_id",
          "type": "bytes32"
        }
      ],
      "name": "revoke",
      "outputs": [],
      "stateMutability": "nonpayable",
      "type": "function"
    },
    {
      "inputs": [
        {
          "internalType": "bytes32",
          "name": "role",
          "type": "bytes32"
        },
        {
          "internalType": "address",
          "name": "account",
          "type": "address"
        }
      ],
      "name": "revokeRole",
      "outputs": [],
      "stateMutability": "nonpayable",
      "type": "function"
    },
    {
      "inputs": [
        {
          "internalType": "bytes4",
          "name": "interfaceId",
          "type": "bytes4"
        }
      ],
      "name": "supportsInterface",
      "outputs": [
        {
          "internalType": "bool",
          "name": "",
          "type": "bool"
        }
      ],
      "stateMutability": "view",
      "type": "function"
    },
    {
      "inputs": [
        {
          "internalType": "bytes32",
          "name": "_id",
          "type": "bytes32"
        },
        {
          "internalType": "bytes32",
          "name": "_checkHash",
          "type": "bytes32"
        }
      ],
      "name": "verify",
      "outputs": [
        {
          "internalType": "bool",
          "name": "valid",
          "type": "bool"
        },
        {
          "internalType": "bool",
          "name": "isRevoked",
          "type": "bool"
        },
        {
          "internalType": "uint64",
          "name": "issuedAt",
          "type": "uint64"
        },
        {
          "internalType": "uint64",
          "name": "expiresAt",
          "type": "uint64"
        },
        {
          "internalType": "string",
          "name": "title",
          "type": "string"
        },
        {
          "internalType": "string",
          "name": "issuer",
          "type": "string"
        }
      ],
      "stateMutability": "view",
      "type": "function"
    }
  ],
  "bytecode": "0x60806040523480156200001157600080fd5b50620000276000801b336200006160201b60201c565b506200005a7f114e74f6ea3bd819998f78687bfcb11b140da08e9b7d222fa9c1f1ba1f2aa122336200006160201b60201c565b50620001d6565b60006200007583836200016460201b60201c565b6200015957600160008085815260200190815260200160002060000160008473ffffffffffffffffffffffffffffffffffffffff1673ffffffffffffffffffffffffffffffffffffffff16815260200190815260200160002060006101000a81548160ff021916908315150217905550620000f5620001ce60201b60201c565b73ffffffffffffffffffffffffffffffffffffffff168273ffffffffffffffffffffffffffffffffffffffff16847f2f8788117e7eff1d82e926ec794901d17c78024a50270940304540a733656f0d60405160405180910390a4600190506200015e565b600090505b92915050565b600080600084815260200190815260200160002060000160008373ffffffffffffffffffffffffffffffffffffffff1673ffffffffffffffffffffffffffffffffffffffff16815260200190815260200160002060009054906101000a900460ff16905092915050565b600033905090565b6119b280620001e66000396000f3fe608060405234801561001057600080fd5b50600436106100b45760003560e01c8063742f068811610071578063742f0688146101a257806382aefa24146101d857806391d14854146101f6578063a217fddf14610226578063b75c7dc614610244578063d547741f14610260576100b4565b806301ffc9a7146100b9578063248a9ca3146100e95780632f2ff15d1461011957806336568abe146101355780634e8fee00146101515780635057622f14610186575b600080fd5b6100d360048036038101906100ce9190610fa6565b61027c565b6040516100e09190610fee565b60405180910390f35b61010360048036038101906100fe919061103f565b6102f6565b604051610110919061107b565b60405180910390f35b610133600480360381019061012e91906110f4565b610315565b005b61014f600480360381019061014a91906110f4565b610337565b005b61016b60048036038101906101669190611134565b6103b2565b60405161017d96959493929190611227565b60405180910390f35b6101a0600480360381019061019b9190611327565b61066c565b005b6101bc60048036038101906101b7919061103f565b6108fa565b6040516101cf97969594939291906113e3565b60405180910390f35b6101e0610a81565b6040516101ed919061107b565b60405180910390f35b610210600480360381019061020b91906110f4565b610aa5565b60405161021d9190610fee565b60405180910390f35b61022e610b0f565b60405161023b919061107b565b60405180910390f35b61025e6004803603810190610259919061103f565b610b16565b005b61027a600480360381019061027591906110f4565b610c68565b005b60007f7965db0b000000000000000000000000000000000000000000000000000000007bffffffffffffffffffffffffffffffffffffffffffffffffffffffff1916827bffffffffffffffffffffffffffffffffffffffffffffffffffffffff191614806102ef57506102ee82610c8a565b5b9050919050565b6000806000838152602001908152602001600020600101549050919050565b61031e826102f6565b61032781610cf4565b6103318383610d08565b50505050565b61033f610df9565b73ffffffffffffffffffffffffffffffffffffffff168173ffffffffffffffffffffffffffffffffffffffff16146103a3576040517f6697b23200000000000000000000000000000000000000000000000000000000815260040160405180910390fd5b6103ad8282610e01565b505050565b6000806000806060806000600160008a81526020019081526020016000206040518060e001604052908160008201548152602001600182015481526020016002820180546103ff9061148f565b80601f016020809104026020016040519081016040528092919081815260200182805461042b9061148f565b80156104785780601f1061044d57610100808354040283529160200191610478565b820191906000526020600020905b81548152906001019060200180831161045b57829003601f168201915b505050505081526020016003820180546104919061148f565b80601f01602080910402602001604051908101604052809291908181526020018280546104bd9061148f565b801561050a5780601f106104df5761010080835404028352916020019161050a565b820191906000526020600020905b8154815290600101906020018083116104ed57829003601f168201915b505050505081526020016004820160009054906101000a900467ffffffffffffffff1667ffffffffffffffff1667ffffffffffffffff1681526020016004820160089054906101000a900467ffffffffffffffff1667ffffffffffffffff1667ffffffffffffffff1681526020016004820160109054906101000a900460ff16151515158152505090506000816080015167ffffffffffffffff16036105e257600080600080604051806020016040528060008152506040518060200160405280600081525096509650965096509650965050610662565b6000808260a0015167ffffffffffffffff16148061060e5750428260a0015167ffffffffffffffff1610155b9050600089836020015114905060008360c0015115801561062c5750815b80156106355750825b9050808460c0015185608001518660a0015187604001518860600151995099509950995099509950505050505b9295509295509295565b7f114e74f6ea3bd819998f78687bfcb11b140da08e9b7d222fa9c1f1ba1f2aa12261069681610cf4565b6000600160008a815260200190815260200160002060040160009054906101000a900467ffffffffffffffff1667ffffffffffffffff161461070d576040517f08c379a00000000000000000000000000000000000000000000000000000000081526004016107049061150c565b60405180910390fd5b6040518060e0016040528089815260200188815260200187878080601f016020809104026020016040519081016040528093929190818152602001838380828437600081840152601f19601f82011690508083019250505050505050815260200185858080601f016020809104026020016040519081016040528093929190818152602001838380828437600081840152601f19601f8201169050808301925050505050505081526020014267ffffffffffffffff1681526020018367ffffffffffffffff16815260200160001515815250600160008a81526020019081526020016000206000820151816000015560208201518160010155604082015181600201908161081b9190611711565b5060608201518160030190816108319190611711565b5060808201518160040160006101000a81548167ffffffffffffffff021916908367ffffffffffffffff16021790555060a08201518160040160086101000a81548167ffffffffffffffff021916908367ffffffffffffffff16021790555060c08201518160040160106101000a81548160ff02191690831515021790555090505086887f180e59e6ea92ee4cf30be875bb0c80fba300b179f2b648ae5ef451fb84925ff98888426040516108e89392919061181f565b60405180910390a35050505050505050565b60016020528060005260406000206000915090508060000154908060010154908060020180546109299061148f565b80601f01602080910402602001604051908101604052809291908181526020018280546109559061148f565b80156109a25780601f10610977576101008083540402835291602001916109a2565b820191906000526020600020905b81548152906001019060200180831161098557829003601f168201915b5050505050908060030180546109b79061148f565b80601f01602080910402602001604051908101604052809291908181526020018280546109e39061148f565b8015610a305780601f10610a0557610100808354040283529160200191610a30565b820191906000526020600020905b815481529060010190602001808311610a1357829003601f168201915b5050505050908060040160009054906101000a900467ffffffffffffffff16908060040160089054906101000a900467ffffffffffffffff16908060040160109054906101000a900460ff16905087565b7f114e74f6ea3bd819998f78687bfcb11b140da08e9b7d222fa9c1f1ba1f2aa12281565b600080600084815260200190815260200160002060000160008373ffffffffffffffffffffffffffffffffffffffff1673ffffffffffffffffffffffffffffffffffffffff16815260200190815260200160002060009054906101000a900460ff16905092915050565b6000801b81565b7f114e74f6ea3bd819998f78687bfcb11b140da08e9b7d222fa9c1f1ba1f2aa122610b4081610cf4565b600060016000848152602001908152602001600020905060008160040160009054906101000a900467ffffffffffffffff1667ffffffffffffffff1603610bbc576040517f08c379a0000000000000000000000000000000000000000000000000000000008152600401610bb39061189d565b60405180910390fd5b8060040160109054906101000a900460ff1615610c0e576040517f08c379a0000000000000000000000000000000000000000000000000000000008152600401610c0590611909565b60405180910390fd5b60018160040160106101000a81548160ff021916908315150217905550827fdfb16e680b89bb363b97cbc4b6ef42b95dba995e00034252becd4f9168cecc8842604051610c5b9190611929565b60405180910390a2505050565b610c71826102f6565b610c7a81610cf4565b610c848383610e01565b50505050565b60007f01ffc9a7000000000000000000000000000000000000000000000000000000007bffffffffffffffffffffffffffffffffffffffffffffffffffffffff1916827bffffffffffffffffffffffffffffffffffffffffffffffffffffffff1916149050919050565b610d0581610d00610df9565b610ef3565b50565b6000610d148383610aa5565b610dee57600160008085815260200190815260200160002060000160008473ffffffffffffffffffffffffffffffffffffffff1673ffffffffffffffffffffffffffffffffffffffff16815260200190815260200160002060006101000a81548160ff021916908315150217905550610d8b610df9565b73ffffffffffffffffffffffffffffffffffffffff168273ffffffffffffffffffffffffffffffffffffffff16847f2f8788117e7eff1d82e926ec794901d17c78024a50270940304540a733656f0d60405160405180910390a460019050610df3565b600090505b92915050565b600033905090565b6000610e0d8383610aa5565b15610ee857600080600085815260200190815260200160002060000160008473ffffffffffffffffffffffffffffffffffffffff1673ffffffffffffffffffffffffffffffffffffffff16815260200190815260200160002060006101000a81548160ff021916908315150217905550610e85610df9565b73ffffffffffffffffffffffffffffffffffffffff168273ffffffffffffffffffffffffffffffffffffffff16847ff6391f5c32d9c69d2a47ea670b442974b53935d1edc7fd64eb21e047a839171b60405160405180910390a460019050610eed565b600090505b92915050565b610efd8282610aa5565b610f405780826040517fe2517d3f000000000000000000000000000000000000000000000000000000008152600401610f37929190611953565b60405180910390fd5b5050565b600080fd5b600080fd5b60007fffffffff0000000000000000000000000000000000000000000000000000000082169050919050565b610f8381610f4e565b8114610f8e57600080fd5b50565b600081359050610fa081610f7a565b92915050565b600060208284031215610fbc57610fbb610f44565b5b6000610fca84828501610f91565b91505092915050565b60008115159050919050565b610fe881610fd3565b82525050565b60006020820190506110036000830184610fdf565b92915050565b6000819050919050565b61101c81611009565b811461102757600080fd5b50565b60008135905061103981611013565b92915050565b60006020828403121561105557611054610f44565b5b60006110638482850161102a565b91505092915050565b61107581611009565b82525050565b6000602082019050611090600083018461106c565b92915050565b600073ffffffffffffffffffffffffffffffffffffffff82169050919050565b60006110c182611096565b9050919050565b6110d1816110b6565b81146110dc57600080fd5b50565b6000813590506110ee816110c8565b92915050565b6000806040838503121561110b5761110a610f44565b5b60006111198582860161102a565b925050602061112a858286016110df565b9150509250929050565b6000806040838503121561114b5761114a610f44565b5b60006111598582860161102a565b925050602061116a8582860161102a565b9150509250929050565b600067ffffffffffffffff82169050919050565b61119181611174565b82525050565b600081519050919050565b600082825260208201905092915050565b60005b838110156111d15780820151818401526020810190506111b6565b60008484015250505050565b6000601f19601f8301169050919050565b60006111f982611197565b61120381856111a2565b93506112138185602086016111b3565b61121c816111dd565b840191505092915050565b600060c08201905061123c6000830189610fdf565b6112496020830188610fdf565b6112566040830187611188565b6112636060830186611188565b818103608083015261127581856111ee565b905081810360a083015261128981846111ee565b9050979650505050505050565b600080fd5b600080fd5b600080fd5b60008083601f8401126112bb576112ba611296565b5b8235905067ffffffffffffffff8111156112d8576112d761129b565b5b6020830191508360018202830111156112f4576112f36112a0565b5b9250929050565b61130481611174565b811461130f57600080fd5b50565b600081359050611321816112fb565b92915050565b600080600080600080600060a0888a03121561134657611345610f44565b5b60006113548a828b0161102a565b97505060206113658a828b0161102a565b965050604088013567ffffffffffffffff81111561138657611385610f49565b5b6113928a828b016112a5565b9550955050606088013567ffffffffffffffff8111156113b5576113b4610f49565b5b6113c18a828b016112a5565b935093505060806113d48a828b01611312565b91505092959891949750929550565b600060e0820190506113f8600083018a61106c565b611405602083018961106c565b818103604083015261141781886111ee565b9050818103606083015261142b81876111ee565b905061143a6080830186611188565b61144760a0830185611188565b61145460c0830184610fdf565b98975050505050505050565b7f4e487b7100000000000000000000000000000000000000000000000000000000600052602260045260246000fd5b600060028204905060018216806114a757607f821691505b6020821081036114ba576114b9611460565b5b50919050565b7f4275204944207a6174656e207661720000000000000000000000000000000000600082015250565b60006114f6600f836111a2565b9150611501826114c0565b602082019050919050565b60006020820190508181036000830152611525816114e9565b9050919050565b7f4e487b7100000000000000000000000000000000000000000000000000000000600052604160045260246000fd5b60008190508160005260206000209050919050565b60006020601f8301049050919050565b600082821b905092915050565b6000600883026115bd7fffffffffffffffffffffffffffffffffffffffffffffffffffffffffffffffff82611580565b6115c78683611580565b95508019841693508086168417925050509392505050565b6000819050919050565b6000819050919050565b600061160e611609611604846115df565b6115e9565b6115df565b9050919050565b6000819050919050565b611628836115f3565b61163c61163482611615565b84845461158d565b825550505050565b600090565b611651611644565b61165c81848461161f565b505050565b5b8181101561168057611675600082611649565b600181019050611662565b5050565b601f8211156116c5576116968161155b565b61169f84611570565b810160208510156116ae578190505b6116c26116ba85611570565b830182611661565b50505b505050565b600082821c905092915050565b60006116e8600019846008026116ca565b1980831691505092915050565b600061170183836116d7565b9150826002028217905092915050565b61171a82611197565b67ffffffffffffffff8111156117335761173261152c565b5b61173d825461148f565b611748828285611684565b600060209050601f83116001811461177b5760008415611769578287015190505b61177385826116f5565b8655506117db565b601f1984166117898661155b565b60005b828110156117b15784890151825560018201915060208501945060208101905061178c565b868310156117ce57848901516117ca601f8916826116d7565b8355505b6001600288020188555050505b505050505050565b82818337600083830152505050565b60006117fe83856111a2565b935061180b8385846117e3565b611814836111dd565b840190509392505050565b6000604082019050818103600083015261183a8185876117f2565b90506118496020830184611188565b949350505050565b7f536572746966696b612062756c756e616d616469000000000000000000000000600082015250565b60006118876014836111a2565b915061189282611851565b602082019050919050565b600060208201905081810360008301526118b68161187a565b9050919050565b7f5a6174656e20697074616c206564696c6d697300000000000000000000000000600082015250565b60006118f36013836111a2565b91506118fe826118bd565b602082019050919050565b60006020820190508181036000830152611922816118e6565b9050919050565b600060208201905061193e6000830184611188565b92915050565b61194d816110b6565b82525050565b60006040820190506119686000830185611944565b611975602083018461106c565b939250505056fea2646970667358221220511a268a2473eb9a888a1be6a736a89b597d1fe4a2926c30baddde8bd06a91ad64736f6c63430008140033",
  "linkReferences": {},
  "deployedLinkReferences": {}
}